:10000000BAC0C1C0C0C0BFC0BEC0BDC0BCC0BBC004
:10001000BAC0B9C0B8C0B7C0B6C0B5C0B4C000009F
:1000200000000000002F00000007000700147F14EC
:100030007F14242A7F2A126264081323364955222A
:10004000500005030000001C2241000041221C005A
:1000500014083E081408083E08080000A0600008C4
:1000600008080808006060000020100804023E51E3
:1000700049453E00427F4000426151494621414589
:100080004B311814127F1027454545393C4A4949E0
:100090003001710905033649494936064949291E87
:1000A00000363600000056360000081422410014C5
:1000B0001414141400412214080201510906324993
:1000C00059513E7C1211127C7F494949363E4141CB
:1000D00041227F4141221C7F494949417F09090949
:1000E000013E4149497A7F0808087F00417F41006D
:1000F0002040413F017F081422417F404040407F23
:10010000020C027F7F0408107F3E4141413E7F097F
:100110000909063E4151215E7F0919294646494990
:10012000493101017F01013F4040403F1F204020F5
:100130001F3F4038403F63140814630708700807E6
:100140006151494543007F414100020408102000ED
:1001500041417F0004020102044040404040A81F8A
:100160002200032000DA028D14AFA1C8544F4F20A3
:10017000484F5421000011241FBECFE5D2E0DEBF5E
:10018000CDBFB5D030C43CCF87B38A7F87BB88B39F
:100190008A7F88BB089598E0B89A87FDB898BA9886
:1001A000880FBA9A9150C1F7B898BA98BA9A089538
:1001B000B89ABA9AF0CFB89ABA98B8980895CF93E7
:1001C000DF93E2DF88E7F4DF80E0E5DFCEE5D1E032
:1001D000FE018491E0DF2196F1E0CA36DF07C1F726
:1001E000DF91CF91E8CFCF93C82F88E7E1DF80E0A0
:1001F000D2DF83EDD0DF8C2FCEDFCF91DCCF0F931A
:100200001F93CF93DF93C82F88E7D2DF80E4C3DF4B
:100210008C2FCC0F990B8097EC01CC0FDD1FCC0FEE
:10022000DD1FC80FD91F80E0B6DF10E000E0C25E1E
:10023000DF4FFE01E00FF11F8491ADDF0F5F1F4F15
:1002400005301105B1F7DF91CF911F910F91B3CF19
:10025000CF93DF93EC0188E7ABDF80E49CDFFE0106
:100260008491811103C0DF91CF91A5CFC8DF219682
:10027000F6CFCF93DF93C82FD62F88E799DF80E0A2
:100280008ADF8C2F8F7087DF8C2F82958F70806133
:1002900082DF8D2F8770806B7EDFDF91CF918BCFD8
:1002A000CF93DF9360E080E0E4DF88E781DF80E4E4
:1002B00072DFC0E0D2E080E06EDF2197E1F77BDF04
:1002C00080E0DF91CF918FCF17BA83E887B986B9E5
:1002D0000895369A349BFECF349A84B195B108952F
:1002E00084B7877F84BF88E181BD11BC0895CF9317
:1002F000DF9300D000D000D0CDB7DEB7F1DFE4DF70
:100300005EDF09E110E0C12CD12C7601E2DFC80EDE
:10031000D91EE11CF11C01501109C1F7C701B6013A
:1003200029E130E040E050E0EFD0B90190E080E01A
:1003300006D22DEC3CEC4CE85FE393D22AE037ED9B
:1003400043E251E468D120E030E048E452E4FED0DA
:100350004B015C0120E030E040E151E482D220E03A
:1003600030E040EA50E457D120E030E040E052E491
:10037000EED06B017C0120E030E040E251E4C501A9
:10038000B4016FD2B0D14B015C0120E030E040E21B
:1003900051E4C701B60165D2A6D11B012C0180DF53
:1003A00061E089E166DFC201B1012AE030E040E0AE
:1003B00050E0AAD0C9014AE08E010F5F1F4FB8017B
:1003C000DFD2712CF80101900020E9F73197E01B92
:1003D000F10B872D90E08E179F0708F479C08EE20D
:1003E0000EDFC201B1012AE030E040E050E08CD0E5
:1003F000CB014AE0B801C4D2712CF8010190002071
:10040000E9F73197E01BF10B872D90E08E179F07DE
:1004100008F465C086E4F3DE61E08BE42ADFC50101
:10042000B4012AE030E040E050E06ED0C9014AE07B
:10043000B801A6D2712CF80101900020E9F731979C
:10044000E01BF10B872D90E08E179F0708F44EC03C
:100450008EE2D5DEC501B4012AE030E040E050E094
:1004600053D0CB014AE0B8018BD2B12CF8010190F6
:100470000020E9F73197E01BF10B8B2D90E08E17F0
:100480009F0708F43AC083E4BADE20E030E040EA97
:1004900052E4C701B601E1D1181634F462E088E2F3
:1004A000E8DE8CE691E0D4DE88E199E20FB6F894BC
:1004B000A89581BD0FBE91BD85B7877E806185BF40
:1004C00085B7806285BF889585B78F7D85BFFFCF53
:1004D000800F911FFC01808192DE739473CF800F97
:1004E000911FFC0180818BDE739487CF800F911F59
:1004F000FC01808184DE73949ECF800F911FFC01EC
:1005000080817DDEB394B2CFA1E21A2EAA1BBB1B61
:10051000FD010DC0AA1FBB1FEE1FFF1FA217B307CF
:10052000E407F50720F0A21BB30BE40BF50B661FE5
:10053000771F881F991F1A9469F7609570958095A9
:1005400090959B01AC01BD01CF0108955058BB2788
:10055000AA270ED048C139D130F03ED120F031F475
:100560009F3F11F41EF42EC10EF4E095E7FB24C169
:10057000E92F4AD180F3BA176207730784079507FA
:1005800018F071F49EF562C10EF4E0950B2EBA2FAF
:10059000A02D0B01B90190010C01CA01A001112489
:1005A000FF27591B99F0593F50F4503E68F11A1635
:1005B000F040A22F232F342F4427585FF3CF4695C6
:1005C00037952795A795F0405395C9F77EF41F16E8
:1005D000BA0B620B730B840BBAF09150A1F0FF0FB2
:1005E000BB1F661F771F881FC2F70EC0BA0F621F9E
:1005F000731F841F48F4879577956795B795F7958E
:100600009E3F08F0B3CF9395880F08F09927EE0F1F
:100610009795879508950CD0E6C0DED040F0D5D0F0
:1006200030F021F45F3F19F0C7C0511110C1CAC0AA
:10063000EBD098F39923C9F35523B1F3951B550BD0
:10064000BB27AA2762177307840738F09F5F5F4FA5
:10065000220F331F441FAA1FA9F333D00E2E3AF0E6
:10066000E0E830D091505040E695001CCAF729D000
:10067000FE2F27D0660F771F881FBB1F261737074F
:100680004807AB07B0E809F0BB0B802DBF01FF277F
:1006900093585F4F2AF09E3F510568F08DC0D7C038
:1006A0005F3FECF3983EDCF3869577956795B795B9
:1006B000F7959F5FC9F7880F911D9695879597F9D4
:1006C0000895E1E0660F771F881FBB1F621773074D
:1006D0008407BA0720F0621B730B840BBA0BEE1F62
:1006E00088F7E095089598D088F09F5790F0B92F3B
:1006F0009927B751A0F0D1F0660F771F881F991F77
:100700001AF0BA95C9F712C0B13081F09FD0B1E0AC
:1007100008959CC0672F782F8827B85F39F0B93FBC
:10072000CCF3869577956795B395D9F73EF4909578
:100730008095709561957F4F8F4F9F4F0895E894F6
:1007400009C097FB3EF490958095709561957F4F19
:100750008F4F9F4F9923A9F0F92F96E9BB279395C7
:10076000F695879577956795B795F111F8CFFAF4D7
:10077000BB0F11F460FF1BC06F5F7F4F8F4F9F4F08
:1007800016C0882311F096E911C0772321F09EE866
:10079000872F762F05C0662371F096E8862F70E0CC
:1007A00060E02AF09A95660F771F881FDAF7880FA6
:1007B0009695879597F9089597F99F6780E870E077
:1007C00060E008959FEF80EC089500240A941616C7
:1007D000170618060906089500240A94121613062F
:1007E000140605060895092E0394000C11F48823BD
:1007F00052F0BB0F40F4BF2B11F460FF04C06F5FD9
:100800007F4F8F4F9F4F089557FD9058440F551FAE
:1008100059F05F3F71F04795880F97FB991F61F082
:100820009F3F79F087950895121613061406551FF9
:10083000F2CF4695F1DF08C0161617061806991F65
:10084000F1CF86957105610508940895E894BB275A
:1008500066277727CB0197F908956ED008F48FEFBC
:1008600008950AD0C0CFB1DF28F0B6DF18F0952385
:1008700009F0A2CFA7CFEBCFC7DFA8F39923D9F315
:100880005523C9F3950F50E0551FAA27EE27FF27E0
:10089000BB2700240894679520F4E20FF31FB41FD0
:1008A0000A1E220F331F441FAA1F6695A9F77795CA
:1008B00030F4F30FB41F0A1E121E08F46395330FB1
:1008C000441FAA1F221F769599F7879520F4B40F2D
:1008D0000A1E121E631F440FAA1F221F331F869574
:1008E000A9F7862F712D602D11249F5750408AF053
:1008F000E1F088234AF0EE0FFF1FBB1F661F771F32
:10090000881F91505040A9F79E3F510570F054CF79
:100910009ECF5F3FECF3983EDCF386957795679525
:10092000B795F795E7959F5FC1F7FE2B880F911D4F
:100930009695879597F90895990F0008550FAA0B7A
:10094000E0E8FEEF16161706E807F907C0F01216E2
:100950001306E407F50798F0621B730B840B950BE5
:1009600039F40A2661F0232B242B252B21F408953A
:100970000A2609F4A140A6958FEF811D811D0895D7
:10098000BB274A3031F4992322F4BDE2909581953A
:100990009F4F01C0BB27FB015527AA27880F991F2E
:1009A000AA1FA41710F0A41B83955051B9F7A05D9E
:1009B000AA3308F0A95DA193009779F7B111B1931B
:1009C0001192CB0100C0DC01FC01672F71917723EC
:1009D000E1F7329704C07C916D9370836291AE17FA
:0A09E000BF07C8F30895F894FFCF95
:00000001FF
